{
  "_format": "hh-sol-artifact-1",
  "contractName": "Vote",
  "sourceName": "contracts/Vote.sol",
  "abi": [
    {
      "inputs": [],
      "stateMutability": "nonpayable",
      "type": "constructor"
    },
    {
      "anonymous": false,
      "inputs": [
        {
          "indexed": false,
          "internalType": "bool",
          "name": "success",
          "type": "bool"
        }
      ],
      "name": "EventAddFrontVote",
      "type": "event"
    },
    {
      "anonymous": false,
      "inputs": [
        {
          "indexed": false,
          "internalType": "uint256[]",
          "name": "numberTables",
          "type": "uint256[]"
        },
        {
          "indexed": false,
          "internalType": "bool[]",
          "name": "isOpens",
          "type": "bool[]"
        },
        {
          "indexed": false,
          "internalType": "uint256[]",
          "name": "totalDelegates",
          "type": "uint256[]"
        },
        {
          "indexed": false,
          "internalType": "bytes32",
          "name": "hash",
          "type": "bytes32"
        }
      ],
      "name": "EventAddPollingTables",
      "type": "event"
    },
    {
      "anonymous": false,
      "inputs": [
        {
          "indexed": false,
          "internalType": "bytes32",
          "name": "hash",
          "type": "bytes32"
        },
        {
          "indexed": false,
          "internalType": "bytes32",
          "name": "electoralRecordHash",
          "type": "bytes32"
        },
        {
          "indexed": false,
          "internalType": "bytes32",
          "name": "signatureHash",
          "type": "bytes32"
        }
      ],
      "name": "EventCloseElectoralRecord",
      "type": "event"
    },
    {
      "anonymous": false,
      "inputs": [
        {
          "indexed": false,
          "internalType": "bytes32",
          "name": "hash",
          "type": "bytes32"
        },
        {
          "indexed": false,
          "internalType": "bytes32",
          "name": "delegateHash",
          "type": "bytes32"
        },
        {
          "indexed": false,
          "internalType": "bytes32",
          "name": "signatureHash",
          "type": "bytes32"
        }
      ],
      "name": "EventClosePollingTable",
      "type": "event"
    },
    {
      "anonymous": false,
      "inputs": [
        {
          "indexed": false,
          "internalType": "bytes32",
          "name": "hash",
          "type": "bytes32"
        },
        {
          "indexed": false,
          "internalType": "bool",
          "name": "isVote",
          "type": "bool"
        },
        {
          "indexed": false,
          "internalType": "bytes32",
          "name": "signatureHash",
          "type": "bytes32"
        }
      ],
      "name": "EventStudentAdded",
      "type": "event"
    },
    {
      "anonymous": false,
      "inputs": [
        {
          "indexed": false,
          "internalType": "uint256",
          "name": "studentsLength",
          "type": "uint256"
        },
        {
          "indexed": false,
          "internalType": "bytes32",
          "name": "hash",
          "type": "bytes32"
        }
      ],
      "name": "EventStudentsAdded",
      "type": "event"
    },
    {
      "anonymous": false,
      "inputs": [
        {
          "indexed": false,
          "internalType": "bytes32",
          "name": "hash",
          "type": "bytes32"
        },
        {
          "indexed": false,
          "internalType": "bool",
          "name": "isVote",
          "type": "bool"
        },
        {
          "indexed": false,
          "internalType": "bytes32",
          "name": "signatureHash",
          "type": "bytes32"
        }
      ],
      "name": "EventVote",
      "type": "event"
    },
    {
      "inputs": [
        {
          "internalType": "bytes32",
          "name": "hash",
          "type": "bytes32"
        }
      ],
      "name": "addFrontVote",
      "outputs": [],
      "stateMutability": "nonpayable",
      "type": "function"
    },
    {
      "inputs": [
        {
          "internalType": "uint256[]",
          "name": "numberTables",
          "type": "uint256[]"
        },
        {
          "internalType": "bool[]",
          "name": "isOpens",
          "type": "bool[]"
        },
        {
          "internalType": "uint256[]",
          "name": "totalDelegates",
          "type": "uint256[]"
        }
      ],
      "name": "addPollingTables",
      "outputs": [],
      "stateMutability": "nonpayable",
      "type": "function"
    },
    {
      "inputs": [
        {
          "internalType": "bytes32",
          "name": "hash",
          "type": "bytes32"
        }
      ],
      "name": "addStudent",
      "outputs": [],
      "stateMutability": "nonpayable",
      "type": "function"
    },
    {
      "inputs": [
        {
          "internalType": "bytes32[]",
          "name": "hashes",
          "type": "bytes32[]"
        }
      ],
      "name": "addStudents",
      "outputs": [],
      "stateMutability": "nonpayable",
      "type": "function"
    },
    {
      "inputs": [
        {
          "internalType": "bytes32",
          "name": "hash",
          "type": "bytes32"
        },
        {
          "internalType": "bytes32",
          "name": "electoralRecordHash",
          "type": "bytes32"
        },
        {
          "internalType": "bytes32",
          "name": "signatureHash",
          "type": "bytes32"
        }
      ],
      "name": "closeElectoralRecord",
      "outputs": [],
      "stateMutability": "nonpayable",
      "type": "function"
    },
    {
      "inputs": [
        {
          "internalType": "bytes32",
          "name": "hash",
          "type": "bytes32"
        },
        {
          "internalType": "uint256",
          "name": "numberTable",
          "type": "uint256"
        },
        {
          "internalType": "bytes32",
          "name": "delegateHash",
          "type": "bytes32"
        },
        {
          "internalType": "bytes32",
          "name": "signatureHash",
          "type": "bytes32"
        },
        {
          "internalType": "uint256",
          "name": "totalSignatures",
          "type": "uint256"
        }
      ],
      "name": "closePollingTable",
      "outputs": [],
      "stateMutability": "nonpayable",
      "type": "function"
    },
    {
      "inputs": [
        {
          "internalType": "bytes32",
          "name": "",
          "type": "bytes32"
        }
      ],
      "name": "electoralRecords",
      "outputs": [
        {
          "internalType": "bytes32",
          "name": "electoralRecordHash",
          "type": "bytes32"
        },
        {
          "internalType": "bytes32",
          "name": "signatureHash",
          "type": "bytes32"
        }
      ],
      "stateMutability": "view",
      "type": "function"
    },
    {
      "inputs": [
        {
          "internalType": "bytes32",
          "name": "",
          "type": "bytes32"
        }
      ],
      "name": "frontVotes",
      "outputs": [
        {
          "internalType": "uint256",
          "name": "",
          "type": "uint256"
        }
      ],
      "stateMutability": "view",
      "type": "function"
    },
    {
      "inputs": [
        {
          "internalType": "bytes32",
          "name": "",
          "type": "bytes32"
        }
      ],
      "name": "nullWhiteVotes",
      "outputs": [
        {
          "internalType": "uint256",
          "name": "nullVotes",
          "type": "uint256"
        },
        {
          "internalType": "uint256",
          "name": "whiteVotes",
          "type": "uint256"
        }
      ],
      "stateMutability": "view",
      "type": "function"
    },
    {
      "inputs": [],
      "name": "openVoting",
      "outputs": [],
      "stateMutability": "nonpayable",
      "type": "function"
    },
    {
      "inputs": [
        {
          "internalType": "bytes32",
          "name": "",
          "type": "bytes32"
        }
      ],
      "name": "pollingTables",
      "outputs": [
        {
          "internalType": "uint256",
          "name": "numberTable",
          "type": "uint256"
        },
        {
          "internalType": "bytes32",
          "name": "delegateHash",
          "type": "bytes32"
        },
        {
          "internalType": "bytes32",
          "name": "signatureHash",
          "type": "bytes32"
        },
        {
          "internalType": "uint256",
          "name": "totalSignatures",
          "type": "uint256"
        }
      ],
      "stateMutability": "view",
      "type": "function"
    },
    {
      "inputs": [
        {
          "internalType": "bytes32",
          "name": "",
          "type": "bytes32"
        }
      ],
      "name": "students",
      "outputs": [
        {
          "internalType": "bool",
          "name": "isVote",
          "type": "bool"
        },
        {
          "internalType": "bytes32",
          "name": "signatureHash",
          "type": "bytes32"
        },
        {
          "internalType": "uint256",
          "name": "numberTable",
          "type": "uint256"
        }
      ],
      "stateMutability": "view",
      "type": "function"
    },
    {
      "inputs": [
        {
          "internalType": "bytes32",
          "name": "hash",
          "type": "bytes32"
        },
        {
          "internalType": "bytes32",
          "name": "signatureHash",
          "type": "bytes32"
        },
        {
          "internalType": "uint256",
          "name": "numberTable",
          "type": "uint256"
        }
      ],
      "name": "vote",
      "outputs": [],
      "stateMutability": "nonpayable",
      "type": "function"
    }
  ],
  "bytecode": "0x608060405234801561001057600080fd5b50336000806101000a81548173ffffffffffffffffffffffffffffffffffffffff021916908373ffffffffffffffffffffffffffffffffffffffff16021790555060008060146101000a81548160ff0219169083151502179055506123028061007a6000396000f3fe608060405234801561001057600080fd5b50600436106100cf5760003560e01c8063bec09fde1161008c578063dbf8008911610066578063dbf80089146101fc578063e7f079821461022e578063f00f5a551461024a578063f4d8987414610266576100cf565b8063bec09fde14610193578063c44d9740146101af578063d06f18e1146101cb576100cf565b80630bb48c11146100d457806320894c51146101055780632f80f0cf14610135578063784b9cb414610151578063806c86271461016d578063affc067014610189575b600080fd5b6100ee60048036038101906100e991906113fc565b610299565b6040516100fc929190611442565b60405180910390f35b61011f600480360381019061011a91906113fc565b6102bd565b60405161012c919061146b565b60405180910390f35b61014f600480360381019061014a9190611486565b6102d5565b005b61016b60048036038101906101669190611759565b6104cd565b005b610187600480360381019061018291906118c3565b61088e565b005b610191610a75565b005b6101ad60048036038101906101a891906113fc565b610a92565b005b6101c960048036038101906101c4919061190c565b610c04565b005b6101e560048036038101906101e091906113fc565b610e29565b6040516101f392919061196e565b60405180910390f35b610216600480360381019061021191906113fc565b610e4d565b604051610225939291906119a6565b60405180910390f35b610248600480360381019061024391906119dd565b610e84565b005b610264600480360381019061025f91906113fc565b611102565b005b610280600480360381019061027b91906113fc565b611296565b6040516102909493929190611a58565b60405180910390f35b60066020528060005260406000206000915090508060000154908060010154905082565b60056020528060005260406000206000915090505481565b600060149054906101000a900460ff16610324576040517f08c379a000000000000000000000000000000000000000000000000000000000815260040161031b90611afa565b60405180910390fd5b60008054906101000a900473ffffffffffffffffffffffffffffffffffffffff1673ffffffffffffffffffffffffffffffffffffffff163373ffffffffffffffffffffffffffffffffffffffff16146103b2576040517f08c379a00000000000000000000000000000000000000000000000000000000081526004016103a990611b66565b60405180910390fd5b6040518060400160405280838152602001828152506003600085815260200190815260200160002060008201518160000155602082015181600101559050506000805b60018054905081101561046357600015156001828154811061041a57610419611b86565b5b906000526020600020906003020160010160009054906101000a900460ff161515141561045057818061044c90611be4565b9250505b808061045b90611be4565b9150506103f5565b5060018054905081141561048c5760008060146101000a81548160ff0219169083151502179055505b7f4fdfbaac770c35d85e54de00218e1b65ef6ea2a842a42398b87435fa95bbb9058484846040516104bf93929190611c2d565b60405180910390a150505050565b60008054906101000a900473ffffffffffffffffffffffffffffffffffffffff1673ffffffffffffffffffffffffffffffffffffffff163373ffffffffffffffffffffffffffffffffffffffff161461055b576040517f08c379a000000000000000000000000000000000000000000000000000000000815260040161055290611b66565b60405180910390fd5b8151835114801561056d575080518251145b6105ac576040517f08c379a00000000000000000000000000000000000000000000000000000000081526004016105a390611cb0565b60405180910390fd5b6000601960f81b6040516020016105c39190611d0b565b60405160208183030381529060405280519060200120905060005b845181101561084a5760008582815181106105fc576105fb611b86565b5b602002602001015111801561062b5750606485828151811061062157610620611b86565b5b6020026020010151105b61066a576040517f08c379a000000000000000000000000000000000000000000000000000000000815260040161066190611d72565b60405180910390fd5b600083828151811061067f5761067e611b86565b5b60200260200101511180156106af57506101f48382815181106106a5576106a4611b86565b5b6020026020010151105b6106ee576040517f08c379a00000000000000000000000000000000000000000000000000000000081526004016106e590611dde565b60405180910390fd5b6001604051806060016040528087848151811061070e5761070d611b86565b5b6020026020010151815260200186848151811061072e5761072d611b86565b5b6020026020010151151581526020018584815181106107505761074f611b86565b5b602002602001015181525090806001815401808255809150506001900390600052602060002090600302016000909190919091506000820151816000015560208201518160010160006101000a81548160ff021916908315150217905550604082015181600201555050818582815181106107ce576107cd611b86565b5b60200260200101518583815181106107e9576107e8611b86565b5b602002602001015185848151811061080457610803611b86565b5b602002602001015160405160200161081f9493929190611dfe565b604051602081830303815290604052805190602001209150808061084290611be4565b9150506105de565b507f86d1579efbbbcdb8d692a0951ef88adab3de3c32497cb0c618f64a76c818c3ca848484846040516108809493929190611fbf565b60405180910390a150505050565b60008054906101000a900473ffffffffffffffffffffffffffffffffffffffff1673ffffffffffffffffffffffffffffffffffffffff163373ffffffffffffffffffffffffffffffffffffffff161461091c576040517f08c379a000000000000000000000000000000000000000000000000000000000815260040161091390611b66565b60405180910390fd5b6000601960f81b6040516020016109339190611d0b565b60405160208183030381529060405280519060200120905060005b8251811015610a365760405180606001604052806000151581526020016000801916815260200160008152506002600085848151811061099157610990611b86565b5b6020026020010151815260200190815260200160002060008201518160000160006101000a81548160ff0219169083151502179055506020820151816001015560408201518160020155905050818382815181106109f2576109f1611b86565b5b6020026020010151604051602001610a0b92919061196e565b6040516020818303038152906040528051906020012091508080610a2e90611be4565b91505061094e565b507f6d447ea94020cb5b2b61e30ab4779d91aee65f2e8f77029ca33cb363a2f7421c825182604051610a69929190612019565b60405180910390a15050565b6001600060146101000a81548160ff021916908315150217905550565b60008054906101000a900473ffffffffffffffffffffffffffffffffffffffff1673ffffffffffffffffffffffffffffffffffffffff163373ffffffffffffffffffffffffffffffffffffffff1614610b20576040517f08c379a0000000000000000000000000000000000000000000000000000000008152600401610b1790611b66565b60405180910390fd5b60405180606001604052806000151581526020016000801916815260200160008152506002600083815260200190815260200160002060008201518160000160006101000a81548160ff02191690831515021790555060208201518160010155604082015181600201559050507ff1ace61b39fc80417e55b8ef90e3f25436b2f8e879726bc335e5d7c3b0548ac5816002600084815260200190815260200160002060000160009054906101000a900460ff166002600085815260200190815260200160002060010154604051610bf993929190612042565b60405180910390a150565b600060149054906101000a900460ff16610c53576040517f08c379a0000000000000000000000000000000000000000000000000000000008152600401610c4a90611afa565b60405180910390fd5b60008054906101000a900473ffffffffffffffffffffffffffffffffffffffff1673ffffffffffffffffffffffffffffffffffffffff163373ffffffffffffffffffffffffffffffffffffffff1614610ce1576040517f08c379a0000000000000000000000000000000000000000000000000000000008152600401610cd890611b66565b60405180910390fd5b600015156002600085815260200190815260200160002060000160009054906101000a900460ff16151514610d4b576040517f08c379a0000000000000000000000000000000000000000000000000000000008152600401610d42906120c5565b60405180910390fd5b60016002600085815260200190815260200160002060000160006101000a81548160ff0219169083151502179055508160026000858152602001908152602001600020600101819055508060026000858152602001908152602001600020600201819055507fa617172cb5becc6da95d4c99f415b90aa83b1ae7d20ae386bd136075a106c822836002600086815260200190815260200160002060000160009054906101000a900460ff166002600087815260200190815260200160002060010154604051610e1c93929190612042565b60405180910390a1505050565b60036020528060005260406000206000915090508060000154908060010154905082565b60026020528060005260406000206000915090508060000160009054906101000a900460ff16908060010154908060020154905083565b600060149054906101000a900460ff16610ed3576040517f08c379a0000000000000000000000000000000000000000000000000000000008152600401610eca90611afa565b60405180910390fd5b60008054906101000a900473ffffffffffffffffffffffffffffffffffffffff1673ffffffffffffffffffffffffffffffffffffffff163373ffffffffffffffffffffffffffffffffffffffff1614610f61576040517f08c379a0000000000000000000000000000000000000000000000000000000008152600401610f5890611b66565b60405180910390fd5b6001805490508410610fa8576040517f08c379a0000000000000000000000000000000000000000000000000000000008152600401610f9f90612131565b60405180910390fd5b604051806080016040528085815260200184815260200183815260200182815250600460008781526020019081526020016000206000820151816000015560208201518160010155604082015181600201556060820151816003015590505060006004600087815260200190815260200160002060030154905060018161102f9190612151565b600460008881526020019081526020016000206003018190555080600180878154811061105f5761105e611b86565b5b90600052602060002090600302016002015461107b91906121a7565b106110bf5760006001868154811061109657611095611b86565b5b906000526020600020906003020160010160006101000a81548160ff0219169083151502179055505b7f569aa7319c61bd193c0366aefc63db3a4ce78dbeaa4791858967b435d5772bf68685856040516110f293929190611c2d565b60405180910390a1505050505050565b600060149054906101000a900460ff16611151576040517f08c379a000000000000000000000000000000000000000000000000000000000815260040161114890611afa565b60405180910390fd5b60008054906101000a900473ffffffffffffffffffffffffffffffffffffffff1673ffffffffffffffffffffffffffffffffffffffff163373ffffffffffffffffffffffffffffffffffffffff16146111df576040517f08c379a00000000000000000000000000000000000000000000000000000000081526004016111d690611b66565b60405180910390fd5b6000600560008381526020019081526020016000205490506112366040518060400160405280600a81526020017f746f74616c566f74657300000000000000000000000000000000000000000000815250826112c6565b8061124090611be4565b90508060056000848152602001908152602001600020819055507ff5d450451030be4764d08409656bf02914cad7e6f3dc7e3d7837261a94484037600160405161128a91906121db565b60405180910390a15050565b60046020528060005260406000206000915090508060000154908060010154908060020154908060030154905084565b61135e82826040516024016112dc92919061226d565b6040516020818303038152906040527fb60e72cc000000000000000000000000000000000000000000000000000000007bffffffffffffffffffffffffffffffffffffffffffffffffffffffff19166020820180517bffffffffffffffffffffffffffffffffffffffffffffffffffffffff8381831617835250505050611362565b5050565b6113798161137161137c61139d565b63ffffffff16565b50565b60006a636f6e736f6c652e6c6f679050600080835160208501845afa505050565b6113a8819050919050565b6113b061229d565b565b6000604051905090565b600080fd5b600080fd5b6000819050919050565b6113d9816113c6565b81146113e457600080fd5b50565b6000813590506113f6816113d0565b92915050565b600060208284031215611412576114116113bc565b5b6000611420848285016113e7565b91505092915050565b6000819050919050565b61143c81611429565b82525050565b60006040820190506114576000830185611433565b6114646020830184611433565b9392505050565b60006020820190506114806000830184611433565b92915050565b60008060006060848603121561149f5761149e6113bc565b5b60006114ad868287016113e7565b93505060206114be868287016113e7565b92505060406114cf868287016113e7565b9150509250925092565b600080fd5b6000601f19601f8301169050919050565b7f4e487b7100000000000000000000000000000000000000000000000000000000600052604160045260246000fd5b611527826114de565b810181811067ffffffffffffffff82111715611546576115456114ef565b5b80604052505050565b60006115596113b2565b9050611565828261151e565b919050565b600067ffffffffffffffff821115611585576115846114ef565b5b602082029050602081019050919050565b600080fd5b6115a481611429565b81146115af57600080fd5b50565b6000813590506115c18161159b565b92915050565b60006115da6115d58461156a565b61154f565b905080838252602082019050602084028301858111156115fd576115fc611596565b5b835b81811015611626578061161288826115b2565b8452602084019350506020810190506115ff565b5050509392505050565b600082601f830112611645576116446114d9565b5b81356116558482602086016115c7565b91505092915050565b600067ffffffffffffffff821115611679576116786114ef565b5b602082029050602081019050919050565b60008115159050919050565b61169f8161168a565b81146116aa57600080fd5b50565b6000813590506116bc81611696565b92915050565b60006116d56116d08461165e565b61154f565b905080838252602082019050602084028301858111156116f8576116f7611596565b5b835b81811015611721578061170d88826116ad565b8452602084019350506020810190506116fa565b5050509392505050565b600082601f8301126117405761173f6114d9565b5b81356117508482602086016116c2565b91505092915050565b600080600060608486031215611772576117716113bc565b5b600084013567ffffffffffffffff8111156117905761178f6113c1565b5b61179c86828701611630565b935050602084013567ffffffffffffffff8111156117bd576117bc6113c1565b5b6117c98682870161172b565b925050604084013567ffffffffffffffff8111156117ea576117e96113c1565b5b6117f686828701611630565b9150509250925092565b600067ffffffffffffffff82111561181b5761181a6114ef565b5b602082029050602081019050919050565b600061183f61183a84611800565b61154f565b9050808382526020820190506020840283018581111561186257611861611596565b5b835b8181101561188b578061187788826113e7565b845260208401935050602081019050611864565b5050509392505050565b600082601f8301126118aa576118a96114d9565b5b81356118ba84826020860161182c565b91505092915050565b6000602082840312156118d9576118d86113bc565b5b600082013567ffffffffffffffff8111156118f7576118f66113c1565b5b61190384828501611895565b91505092915050565b600080600060608486031215611925576119246113bc565b5b6000611933868287016113e7565b9350506020611944868287016113e7565b9250506040611955868287016115b2565b9150509250925092565b611968816113c6565b82525050565b6000604082019050611983600083018561195f565b611990602083018461195f565b9392505050565b6119a08161168a565b82525050565b60006060820190506119bb6000830186611997565b6119c8602083018561195f565b6119d56040830184611433565b949350505050565b600080600080600060a086880312156119f9576119f86113bc565b5b6000611a07888289016113e7565b9550506020611a18888289016115b2565b9450506040611a29888289016113e7565b9350506060611a3a888289016113e7565b9250506080611a4b888289016115b2565b9150509295509295909350565b6000608082019050611a6d6000830187611433565b611a7a602083018661195f565b611a87604083018561195f565b611a946060830184611433565b95945050505050565b600082825260208201905092915050565b7f566f74696e6720697320636c6f73656400000000000000000000000000000000600082015250565b6000611ae4601083611a9d565b9150611aef82611aae565b602082019050919050565b60006020820190508181036000830152611b1381611ad7565b9050919050565b7f43616c6c6572206973206e6f74206f776e657200000000000000000000000000600082015250565b6000611b50601383611a9d565b9150611b5b82611b1a565b602082019050919050565b60006020820190508181036000830152611b7f81611b43565b9050919050565b7f4e487b7100000000000000000000000000000000000000000000000000000000600052603260045260246000fd5b7f4e487b7100000000000000000000000000000000000000000000000000000000600052601160045260246000fd5b6000611bef82611429565b91507fffffffffffffffffffffffffffffffffffffffffffffffffffffffffffffffff821415611c2257611c21611bb5565b5b600182019050919050565b6000606082019050611c42600083018661195f565b611c4f602083018561195f565b611c5c604083018461195f565b949350505050565b7f4172726179206c656e6774687320646f206e6f74206d61746368000000000000600082015250565b6000611c9a601a83611a9d565b9150611ca582611c64565b602082019050919050565b60006020820190508181036000830152611cc981611c8d565b9050919050565b60007fff0000000000000000000000000000000000000000000000000000000000000082169050919050565b611d0581611cd0565b82525050565b6000602082019050611d206000830184611cfc565b92915050565b7f496e76616c6964206e756d626572207461626c65000000000000000000000000600082015250565b6000611d5c601483611a9d565b9150611d6782611d26565b602082019050919050565b60006020820190508181036000830152611d8b81611d4f565b9050919050565b7f496e76616c696420746f74616c2064656c656761746573000000000000000000600082015250565b6000611dc8601783611a9d565b9150611dd382611d92565b602082019050919050565b60006020820190508181036000830152611df781611dbb565b9050919050565b6000608082019050611e13600083018761195f565b611e206020830186611433565b611e2d6040830185611997565b611e3a6060830184611433565b95945050505050565b600081519050919050565b600082825260208201905092915050565b6000819050602082019050919050565b611e7881611429565b82525050565b6000611e8a8383611e6f565b60208301905092915050565b6000602082019050919050565b6000611eae82611e43565b611eb88185611e4e565b9350611ec383611e5f565b8060005b83811015611ef4578151611edb8882611e7e565b9750611ee683611e96565b925050600181019050611ec7565b5085935050505092915050565b600081519050919050565b600082825260208201905092915050565b6000819050602082019050919050565b611f368161168a565b82525050565b6000611f488383611f2d565b60208301905092915050565b6000602082019050919050565b6000611f6c82611f01565b611f768185611f0c565b9350611f8183611f1d565b8060005b83811015611fb2578151611f998882611f3c565b9750611fa483611f54565b925050600181019050611f85565b5085935050505092915050565b60006080820190508181036000830152611fd98187611ea3565b90508181036020830152611fed8186611f61565b905081810360408301526120018185611ea3565b9050612010606083018461195f565b95945050505050565b600060408201905061202e6000830185611433565b61203b602083018461195f565b9392505050565b6000606082019050612057600083018661195f565b6120646020830185611997565b612071604083018461195f565b949350505050565b7f5468652073747564656e742068617320616c726561647920766f746564000000600082015250565b60006120af601d83611a9d565b91506120ba82612079565b602082019050919050565b600060208201905081810360008301526120de816120a2565b9050919050565b7f496e76616c6964207461626c65206e756d626572000000000000000000000000600082015250565b600061211b601483611a9d565b9150612126826120e5565b602082019050919050565b6000602082019050818103600083015261214a8161210e565b9050919050565b600061215c82611429565b915061216783611429565b9250827fffffffffffffffffffffffffffffffffffffffffffffffffffffffffffffffff0382111561219c5761219b611bb5565b5b828201905092915050565b60006121b282611429565b91506121bd83611429565b9250828210156121d0576121cf611bb5565b5b828203905092915050565b60006020820190506121f06000830184611997565b92915050565b600081519050919050565b60005b8381101561221f578082015181840152602081019050612204565b8381111561222e576000848401525b50505050565b600061223f826121f6565b6122498185611a9d565b9350612259818560208601612201565b612262816114de565b840191505092915050565b600060408201905081810360008301526122878185612234565b90506122966020830184611433565b9392505050565b7f4e487b7100000000000000000000000000000000000000000000000000000000600052605160045260246000fdfea2646970667358221220f9e59a909654131c4195ec87ed51c644a92d0cd67ed8a2a60227f639f5d4809a64736f6c634300080c0033",
  "linkReferences": {},
  "deployedLinkReferences": {}
}